{
  "contractName": "KoladeUser",
  "abi": [
    {
      "inputs": [
        {
          "internalType": "string",
          "name": "_name",
          "type": "string"
        },
        {
          "internalType": "address",
          "name": "_tokenContractAddress",
          "type": "address"
        }
      ],
      "stateMutability": "nonpayable",
      "type": "constructor"
    },
    {
      "inputs": [
        {
          "internalType": "address",
          "name": "owner",
          "type": "address"
        }
      ],
      "name": "OwnableInvalidOwner",
      "type": "error"
    },
    {
      "inputs": [
        {
          "internalType": "address",
          "name": "account",
          "type": "address"
        }
      ],
      "name": "OwnableUnauthorizedAccount",
      "type": "error"
    },
    {
      "anonymous": false,
      "inputs": [
        {
          "indexed": true,
          "internalType": "address",
          "name": "previousOwner",
          "type": "address"
        },
        {
          "indexed": true,
          "internalType": "address",
          "name": "newOwner",
          "type": "address"
        }
      ],
      "name": "OwnershipTransferred",
      "type": "event"
    },
    {
      "anonymous": false,
      "inputs": [
        {
          "indexed": true,
          "internalType": "address",
          "name": "author",
          "type": "address"
        },
        {
          "indexed": false,
          "internalType": "uint256",
          "name": "postId",
          "type": "uint256"
        }
      ],
      "name": "PostCreated",
      "type": "event"
    },
    {
      "anonymous": false,
      "inputs": [
        {
          "indexed": true,
          "internalType": "address",
          "name": "user",
          "type": "address"
        },
        {
          "indexed": false,
          "internalType": "uint256",
          "name": "postId",
          "type": "uint256"
        }
      ],
      "name": "PostLiked",
      "type": "event"
    },
    {
      "inputs": [],
      "name": "koladeToken",
      "outputs": [
        {
          "internalType": "address",
          "name": "",
          "type": "address"
        }
      ],
      "stateMutability": "view",
      "type": "function"
    },
    {
      "inputs": [
        {
          "internalType": "address",
          "name": "",
          "type": "address"
        }
      ],
      "name": "likedPosts",
      "outputs": [
        {
          "internalType": "bool",
          "name": "",
          "type": "bool"
        }
      ],
      "stateMutability": "view",
      "type": "function"
    },
    {
      "inputs": [],
      "name": "name",
      "outputs": [
        {
          "internalType": "string",
          "name": "",
          "type": "string"
        }
      ],
      "stateMutability": "view",
      "type": "function"
    },
    {
      "inputs": [],
      "name": "owner",
      "outputs": [
        {
          "internalType": "address",
          "name": "",
          "type": "address"
        }
      ],
      "stateMutability": "view",
      "type": "function"
    },
    {
      "inputs": [
        {
          "internalType": "uint256",
          "name": "",
          "type": "uint256"
        }
      ],
      "name": "posts",
      "outputs": [
        {
          "internalType": "address",
          "name": "author",
          "type": "address"
        },
        {
          "internalType": "string",
          "name": "content",
          "type": "string"
        },
        {
          "internalType": "string",
          "name": "imageURL",
          "type": "string"
        },
        {
          "internalType": "uint256",
          "name": "likes",
          "type": "uint256"
        }
      ],
      "stateMutability": "view",
      "type": "function"
    },
    {
      "inputs": [],
      "name": "renounceOwnership",
      "outputs": [],
      "stateMutability": "nonpayable",
      "type": "function"
    },
    {
      "inputs": [],
      "name": "tokenAmount",
      "outputs": [
        {
          "internalType": "uint256",
          "name": "",
          "type": "uint256"
        }
      ],
      "stateMutability": "view",
      "type": "function"
    },
    {
      "inputs": [],
      "name": "tokenBalance",
      "outputs": [
        {
          "internalType": "uint256",
          "name": "",
          "type": "uint256"
        }
      ],
      "stateMutability": "view",
      "type": "function"
    },
    {
      "inputs": [],
      "name": "tokenContract",
      "outputs": [
        {
          "internalType": "contract IERC20",
          "name": "",
          "type": "address"
        }
      ],
      "stateMutability": "view",
      "type": "function"
    },
    {
      "inputs": [
        {
          "internalType": "address",
          "name": "newOwner",
          "type": "address"
        }
      ],
      "name": "transferOwnership",
      "outputs": [],
      "stateMutability": "nonpayable",
      "type": "function"
    },
    {
      "inputs": [
        {
          "internalType": "uint256",
          "name": "_amount",
          "type": "uint256"
        }
      ],
      "name": "setTokenAmount",
      "outputs": [],
      "stateMutability": "nonpayable",
      "type": "function"
    },
    {
      "inputs": [
        {
          "internalType": "string",
          "name": "_content",
          "type": "string"
        },
        {
          "internalType": "string",
          "name": "_imageURL",
          "type": "string"
        }
      ],
      "name": "createPost",
      "outputs": [],
      "stateMutability": "nonpayable",
      "type": "function"
    },
    {
      "inputs": [
        {
          "internalType": "uint256",
          "name": "_postId",
          "type": "uint256"
        }
      ],
      "name": "likePost",
      "outputs": [],
      "stateMutability": "nonpayable",
      "type": "function"
    },
    {
      "inputs": [
        {
          "internalType": "uint256",
          "name": "_postId",
          "type": "uint256"
        }
      ],
      "name": "distributeTokensToLikers",
      "outputs": [],
      "stateMutability": "nonpayable",
      "type": "function"
    },
    {
      "inputs": [
        {
          "internalType": "uint256",
          "name": "amount",
          "type": "uint256"
        }
      ],
      "name": "depositTokens",
      "outputs": [],
      "stateMutability": "nonpayable",
      "type": "function"
    },
    {
      "inputs": [
        {
          "internalType": "uint256",
          "name": "amount",
          "type": "uint256"
        }
      ],
      "name": "withdrawTokens",
      "outputs": [],
      "stateMutability": "nonpayable",
      "type": "function"
    },
    {
      "inputs": [],
      "name": "getBalance",
      "outputs": [
        {
          "internalType": "uint256",
          "name": "",
          "type": "uint256"
        }
      ],
      "stateMutability": "view",
      "type": "function"
    }
  ],
  "bytecode": "0x608060405234801562000010575f80fd5b50604051620029c4380380620029c48339818101604052810190620000369190620003fd565b335f73ffffffffffffffffffffffffffffffffffffffff168173ffffffffffffffffffffffffffffffffffffffff1603620000aa575f6040517f1e4fbdf7000000000000000000000000000000000000000000000000000000008152600401620000a1919062000472565b60405180910390fd5b620000bb816200015660201b60201c565b508160019081620000cd9190620006c4565b503360025f6101000a81548173ffffffffffffffffffffffffffffffffffffffff021916908373ffffffffffffffffffffffffffffffffffffffff1602179055508060035f6101000a81548173ffffffffffffffffffffffffffffffffffffffff021916908373ffffffffffffffffffffffffffffffffffffffff1602179055505050620007a8565b5f805f9054906101000a900473ffffffffffffffffffffffffffffffffffffffff169050815f806101000a81548173ffffffffffffffffffffffffffffffffffffffff021916908373ffffffffffffffffffffffffffffffffffffffff1602179055508173ffffffffffffffffffffffffffffffffffffffff168173ffffffffffffffffffffffffffffffffffffffff167f8be0079c531659141344cd1fd0a4f28419497f9722a3daafe3b4186f6b6457e060405160405180910390a35050565b5f604051905090565b5f80fd5b5f80fd5b5f80fd5b5f80fd5b5f601f19601f8301169050919050565b7f4e487b71000000000000000000000000000000000000000000000000000000005f52604160045260245ffd5b620002788262000230565b810181811067ffffffffffffffff821117156200029a576200029962000240565b5b80604052505050565b5f620002ae62000217565b9050620002bc82826200026d565b919050565b5f67ffffffffffffffff821115620002de57620002dd62000240565b5b620002e98262000230565b9050602081019050919050565b5f5b8381101562000315578082015181840152602081019050620002f8565b5f8484015250505050565b5f620003366200033084620002c1565b620002a3565b9050828152602081018484840111156200035557620003546200022c565b5b62000362848285620002f6565b509392505050565b5f82601f83011262000381576200038062000228565b5b81516200039384826020860162000320565b91505092915050565b5f73ffffffffffffffffffffffffffffffffffffffff82169050919050565b5f620003c7826200039c565b9050919050565b620003d981620003bb565b8114620003e4575f80fd5b50565b5f81519050620003f781620003ce565b92915050565b5f806040838503121562000416576200041562000220565b5b5f83015167ffffffffffffffff81111562000436576200043562000224565b5b62000444858286016200036a565b92505060206200045785828601620003e7565b9150509250929050565b6200046c81620003bb565b82525050565b5f602082019050620004875f83018462000461565b92915050565b5f81519050919050565b7f4e487b71000000000000000000000000000000000000000000000000000000005f52602260045260245ffd5b5f6002820490506001821680620004dc57607f821691505b602082108103620004f257620004f162000497565b5b50919050565b5f819050815f5260205f209050919050565b5f6020601f8301049050919050565b5f82821b905092915050565b5f60088302620005567fffffffffffffffffffffffffffffffffffffffffffffffffffffffffffffffff8262000519565b62000562868362000519565b95508019841693508086168417925050509392505050565b5f819050919050565b5f819050919050565b5f620005ac620005a6620005a0846200057a565b62000583565b6200057a565b9050919050565b5f819050919050565b620005c7836200058c565b620005df620005d682620005b3565b84845462000525565b825550505050565b5f90565b620005f5620005e7565b62000602818484620005bc565b505050565b5b8181101562000629576200061d5f82620005eb565b60018101905062000608565b5050565b601f82111562000678576200064281620004f8565b6200064d846200050a565b810160208510156200065d578190505b620006756200066c856200050a565b83018262000607565b50505b505050565b5f82821c905092915050565b5f6200069a5f19846008026200067d565b1980831691505092915050565b5f620006b4838362000689565b9150826002028217905092915050565b620006cf826200048d565b67ffffffffffffffff811115620006eb57620006ea62000240565b5b620006f78254620004c4565b620007048282856200062d565b5f60209050601f8311600181146200073a575f841562000725578287015190505b620007318582620006a7565b865550620007a0565b601f1984166200074a86620004f8565b5f5b8281101562000773578489015182556001820191506020850194506020810190506200074c565b868310156200079357848901516200078f601f89168262000689565b8355505b6001600288020188555050505b505050505050565b61220e80620007b65f395ff3fe608060405234801561000f575f80fd5b5060043610610109575f3560e01c80634a32bc55116100a05780638da5cb5b1161006f5780638da5cb5b1461027e5780639e1a4d191461029c578063dd49756e146102ba578063eec7faa1146102d6578063f2fde38b146102f457610109565b80634a32bc551461020a57806355a373d61461023a578063715018a614610258578063725009d31461026257610109565b80631a8ddaaf116100dc5780631a8ddaaf146101985780631d53b661146101b4578063315a095d146101d2578063392338f5146101ee57610109565b806306fdde031461010d5780630749469f1461012b5780630b1e7f831461014757806312065fe01461017a575b5f80fd5b610115610310565b60405161012291906114ab565b60405180910390f35b6101456004803603810190610140919061150f565b61039c565b005b610161600480360381019061015c919061150f565b6103f2565b6040516101719493929190611588565b60405180910390f35b610182610558565b60405161018f91906115d9565b60405180910390f35b6101b260048036038101906101ad919061150f565b610561565b005b6101bc61087e565b6040516101c991906115f2565b60405180910390f35b6101ec60048036038101906101e7919061150f565b6108a3565b005b61020860048036038101906102039190611737565b6109e2565b005b610224600480360381019061021f91906117d7565b610b68565b604051610231919061181c565b60405180910390f35b610242610b85565b60405161024f9190611890565b60405180910390f35b610260610baa565b005b61027c6004803603810190610277919061150f565b610bbd565b005b610286611042565b60405161029391906115f2565b60405180910390f35b6102a4611069565b6040516102b191906115d9565b60405180910390f35b6102d460048036038101906102cf919061150f565b61106f565b005b6102de611248565b6040516102eb91906115d9565b60405180910390f35b61030e600480360381019061030991906117d7565b61124e565b005b6001805461031d906118d6565b80601f0160208091040260200160405190810160405280929190818152602001828054610349906118d6565b80156103945780601f1061036b57610100808354040283529160200191610394565b820191905f5260205f20905b81548152906001019060200180831161037757829003601f168201915b505050505081565b6103a46112d2565b5f600454146103e8576040517f08c379a00000000000000000000000000000000000000000000000000000000081526004016103df90611976565b60405180910390fd5b8060048190555050565b60068181548110610401575f80fd5b905f5260205f2090600402015f91509050805f015f9054906101000a900473ffffffffffffffffffffffffffffffffffffffff1690806001018054610445906118d6565b80601f0160208091040260200160405190810160405280929190818152602001828054610471906118d6565b80156104bc5780601f10610493576101008083540402835291602001916104bc565b820191905f5260205f20905b81548152906001019060200180831161049f57829003601f168201915b5050505050908060020180546104d1906118d6565b80601f01602080910402602001604051908101604052809291908181526020018280546104fd906118d6565b80156105485780601f1061051f57610100808354040283529160200191610548565b820191905f5260205f20905b81548152906001019060200180831161052b57829003601f168201915b5050505050908060030154905084565b5f600554905090565b6105696112d2565b60068054905081106105b0576040517f08c379a00000000000000000000000000000000000000000000000000000000081526004016105a7906119de565b60405180910390fd5b5f600682815481106105c5576105c46119fc565b5b905f5260205f2090600402019050805f015f9054906101000a900473ffffffffffffffffffffffffffffffffffffffff1673ffffffffffffffffffffffffffffffffffffffff163373ffffffffffffffffffffffffffffffffffffffff1614610663576040517f08c379a000000000000000000000000000000000000000000000000000000000815260040161065a90611a99565b60405180910390fd5b5f805b6006805490508110156107065760075f845f015f9054906101000a900473ffffffffffffffffffffffffffffffffffffffff1673ffffffffffffffffffffffffffffffffffffffff1673ffffffffffffffffffffffffffffffffffffffff1681526020019081526020015f205f9054906101000a900460ff16156106f35781806106ef90611ae4565b9250505b80806106fe90611ae4565b915050610666565b505f8160026005546107189190611b58565b6107229190611b58565b90505f5b6006805490508110156108775760075f855f015f9054906101000a900473ffffffffffffffffffffffffffffffffffffffff1673ffffffffffffffffffffffffffffffffffffffff1673ffffffffffffffffffffffffffffffffffffffff1681526020019081526020015f205f9054906101000a900460ff16156108645760035f9054906101000a900473ffffffffffffffffffffffffffffffffffffffff1673ffffffffffffffffffffffffffffffffffffffff1663a9059cbb855f015f9054906101000a900473ffffffffffffffffffffffffffffffffffffffff16846040518363ffffffff1660e01b8152600401610822929190611b88565b6020604051808303815f875af115801561083e573d5f803e3d5ffd5b505050506040513d601f19601f820116820180604052508101906108629190611bd9565b505b808061086f90611ae4565b915050610726565b5050505050565b60025f9054906101000a900473ffffffffffffffffffffffffffffffffffffffff1681565b5f81116108e5576040517f08c379a00000000000000000000000000000000000000000000000000000000081526004016108dc90611c4e565b60405180910390fd5b80600554101561092a576040517f08c379a000000000000000000000000000000000000000000000000000000000815260040161092190611cb6565b60405180910390fd5b60035f9054906101000a900473ffffffffffffffffffffffffffffffffffffffff1673ffffffffffffffffffffffffffffffffffffffff1663a9059cbb33836040518363ffffffff1660e01b8152600401610986929190611b88565b6020604051808303815f875af11580156109a2573d5f803e3d5ffd5b505050506040513d601f19601f820116820180604052508101906109c69190611bd9565b508060055f8282546109d89190611cd4565b9250508190555050565b5f825111610a25576040517f08c379a0000000000000000000000000000000000000000000000000000000008152600401610a1c90611d51565b60405180910390fd5b5f60405180608001604052803373ffffffffffffffffffffffffffffffffffffffff1681526020018481526020018381526020015f8152509050600681908060018154018082558091505060019003905f5260205f2090600402015f909190919091505f820151815f015f6101000a81548173ffffffffffffffffffffffffffffffffffffffff021916908373ffffffffffffffffffffffffffffffffffffffff1602179055506020820151816001019081610ae19190611f03565b506040820151816002019081610af79190611f03565b506060820151816003015550503373ffffffffffffffffffffffffffffffffffffffff167f09cf2578b7d56ad392e46d90ca0c5004ffca074e158a150ccc34aac58ce1b8c66001600680549050610b4e9190611cd4565b604051610b5b91906115d9565b60405180910390a2505050565b6007602052805f5260405f205f915054906101000a900460ff1681565b60035f9054906101000a900473ffffffffffffffffffffffffffffffffffffffff1681565b610bb26112d2565b610bbb5f611359565b565b6006805490508110610c04576040517f08c379a0000000000000000000000000000000000000000000000000000000008152600401610bfb906119de565b60405180910390fd5b60075f3373ffffffffffffffffffffffffffffffffffffffff1673ffffffffffffffffffffffffffffffffffffffff1681526020019081526020015f205f9054906101000a900460ff1615610c8e576040517f08c379a0000000000000000000000000000000000000000000000000000000008152600401610c859061201c565b60405180910390fd5b5f60068281548110610ca357610ca26119fc565b5b905f5260205f2090600402019050805f015f9054906101000a900473ffffffffffffffffffffffffffffffffffffffff1673ffffffffffffffffffffffffffffffffffffffff163373ffffffffffffffffffffffffffffffffffffffff1603610d41576040517f08c379a0000000000000000000000000000000000000000000000000000000008152600401610d3890612084565b60405180910390fd5b5f600190508060035f9054906101000a900473ffffffffffffffffffffffffffffffffffffffff1673ffffffffffffffffffffffffffffffffffffffff1663dd62ed3e33306040518363ffffffff1660e01b8152600401610da39291906120a2565b602060405180830381865afa158015610dbe573d5f803e3d5ffd5b505050506040513d601f19601f82011682018060405250810190610de291906120dd565b1015610e23576040517f08c379a0000000000000000000000000000000000000000000000000000000008152600401610e1a90612152565b60405180910390fd5b60035f9054906101000a900473ffffffffffffffffffffffffffffffffffffffff1673ffffffffffffffffffffffffffffffffffffffff166323b872dd3330846040518463ffffffff1660e01b8152600401610e8193929190612170565b6020604051808303815f875af1158015610e9d573d5f803e3d5ffd5b505050506040513d601f19601f82011682018060405250810190610ec19190611bd9565b5060035f9054906101000a900473ffffffffffffffffffffffffffffffffffffffff1673ffffffffffffffffffffffffffffffffffffffff1663a9059cbb835f015f9054906101000a900473ffffffffffffffffffffffffffffffffffffffff16836040518363ffffffff1660e01b8152600401610f40929190611b88565b6020604051808303815f875af1158015610f5c573d5f803e3d5ffd5b505050506040513d601f19601f82011682018060405250810190610f809190611bd9565b50816003015f815480929190610f9590611ae4565b9190505550600160075f3373ffffffffffffffffffffffffffffffffffffffff1673ffffffffffffffffffffffffffffffffffffffff1681526020019081526020015f205f6101000a81548160ff0219169083151502179055503373ffffffffffffffffffffffffffffffffffffffff167f62500381f39eb6f48b6e6f104021ceeaca9e5354918dc17b4a15bf87c5f5d28b8460405161103591906115d9565b60405180910390a2505050565b5f805f9054906101000a900473ffffffffffffffffffffffffffffffffffffffff16905090565b60055481565b5f81116110b1576040517f08c379a00000000000000000000000000000000000000000000000000000000081526004016110a890611c4e565b60405180910390fd5b8060035f9054906101000a900473ffffffffffffffffffffffffffffffffffffffff1673ffffffffffffffffffffffffffffffffffffffff1663dd62ed3e33306040518363ffffffff1660e01b815260040161110e9291906120a2565b602060405180830381865afa158015611129573d5f803e3d5ffd5b505050506040513d601f19601f8201168201806040525081019061114d91906120dd565b101561118e576040517f08c379a000000000000000000000000000000000000000000000000000000000815260040161118590612152565b60405180910390fd5b60035f9054906101000a900473ffffffffffffffffffffffffffffffffffffffff1673ffffffffffffffffffffffffffffffffffffffff166323b872dd3330846040518463ffffffff1660e01b81526004016111ec93929190612170565b6020604051808303815f875af1158015611208573d5f803e3d5ffd5b505050506040513d601f19601f8201168201806040525081019061122c9190611bd9565b508060055f82825461123e91906121a5565b9250508190555050565b60045481565b6112566112d2565b5f73ffffffffffffffffffffffffffffffffffffffff168173ffffffffffffffffffffffffffffffffffffffff16036112c6575f6040517f1e4fbdf70000000000000000000000000000000000000000000000000000000081526004016112bd91906115f2565b60405180910390fd5b6112cf81611359565b50565b6112da61141a565b73ffffffffffffffffffffffffffffffffffffffff166112f8611042565b73ffffffffffffffffffffffffffffffffffffffff16146113575761131b61141a565b6040517f118cdaa700000000000000000000000000000000000000000000000000000000815260040161134e91906115f2565b60405180910390fd5b565b5f805f9054906101000a900473ffffffffffffffffffffffffffffffffffffffff169050815f806101000a81548173ffffffffffffffffffffffffffffffffffffffff021916908373ffffffffffffffffffffffffffffffffffffffff1602179055508173ffffffffffffffffffffffffffffffffffffffff168173ffffffffffffffffffffffffffffffffffffffff167f8be0079c531659141344cd1fd0a4f28419497f9722a3daafe3b4186f6b6457e060405160405180910390a35050565b5f33905090565b5f81519050919050565b5f82825260208201905092915050565b5f5b8381101561145857808201518184015260208101905061143d565b5f8484015250505050565b5f601f19601f8301169050919050565b5f61147d82611421565b611487818561142b565b935061149781856020860161143b565b6114a081611463565b840191505092915050565b5f6020820190508181035f8301526114c38184611473565b905092915050565b5f604051905090565b5f80fd5b5f80fd5b5f819050919050565b6114ee816114dc565b81146114f8575f80fd5b50565b5f81359050611509816114e5565b92915050565b5f60208284031215611524576115236114d4565b5b5f611531848285016114fb565b91505092915050565b5f73ffffffffffffffffffffffffffffffffffffffff82169050919050565b5f6115638261153a565b9050919050565b61157381611559565b82525050565b611582816114dc565b82525050565b5f60808201905061159b5f83018761156a565b81810360208301526115ad8186611473565b905081810360408301526115c18185611473565b90506115d06060830184611579565b95945050505050565b5f6020820190506115ec5f830184611579565b92915050565b5f6020820190506116055f83018461156a565b92915050565b5f80fd5b5f80fd5b7f4e487b71000000000000000000000000000000000000000000000000000000005f52604160045260245ffd5b61164982611463565b810181811067ffffffffffffffff8211171561166857611667611613565b5b80604052505050565b5f61167a6114cb565b90506116868282611640565b919050565b5f67ffffffffffffffff8211156116a5576116a4611613565b5b6116ae82611463565b9050602081019050919050565b828183375f83830152505050565b5f6116db6116d68461168b565b611671565b9050828152602081018484840111156116f7576116f661160f565b5b6117028482856116bb565b509392505050565b5f82601f83011261171e5761171d61160b565b5b813561172e8482602086016116c9565b91505092915050565b5f806040838503121561174d5761174c6114d4565b5b5f83013567ffffffffffffffff81111561176a576117696114d8565b5b6117768582860161170a565b925050602083013567ffffffffffffffff811115611797576117966114d8565b5b6117a38582860161170a565b9150509250929050565b6117b681611559565b81146117c0575f80fd5b50565b5f813590506117d1816117ad565b92915050565b5f602082840312156117ec576117eb6114d4565b5b5f6117f9848285016117c3565b91505092915050565b5f8115159050919050565b61181681611802565b82525050565b5f60208201905061182f5f83018461180d565b92915050565b5f819050919050565b5f61185861185361184e8461153a565b611835565b61153a565b9050919050565b5f6118698261183e565b9050919050565b5f61187a8261185f565b9050919050565b61188a81611870565b82525050565b5f6020820190506118a35f830184611881565b92915050565b7f4e487b71000000000000000000000000000000000000000000000000000000005f52602260045260245ffd5b5f60028204905060018216806118ed57607f821691505b602082108103611900576118ff6118a9565b5b50919050565b7f546f6b656e20616d6f756e742063616e206f6e6c7920626520736574206f6e635f8201527f6500000000000000000000000000000000000000000000000000000000000000602082015250565b5f61196060218361142b565b915061196b82611906565b604082019050919050565b5f6020820190508181035f83015261198d81611954565b9050919050565b7f496e76616c696420706f737420494400000000000000000000000000000000005f82015250565b5f6119c8600f8361142b565b91506119d382611994565b602082019050919050565b5f6020820190508181035f8301526119f5816119bc565b9050919050565b7f4e487b71000000000000000000000000000000000000000000000000000000005f52603260045260245ffd5b7f596f752063616e206f6e6c79206469737472696275746520746f6b656e7320665f8201527f6f7220796f757220706f73747300000000000000000000000000000000000000602082015250565b5f611a83602d8361142b565b9150611a8e82611a29565b604082019050919050565b5f6020820190508181035f830152611ab081611a77565b9050919050565b7f4e487b71000000000000000000000000000000000000000000000000000000005f52601160045260245ffd5b5f611aee826114dc565b91507fffffffffffffffffffffffffffffffffffffffffffffffffffffffffffffffff8203611b2057611b1f611ab7565b5b600182019050919050565b7f4e487b71000000000000000000000000000000000000000000000000000000005f52601260045260245ffd5b5f611b62826114dc565b9150611b6d836114dc565b925082611b7d57611b7c611b2b565b5b828204905092915050565b5f604082019050611b9b5f83018561156a565b611ba86020830184611579565b9392505050565b611bb881611802565b8114611bc2575f80fd5b50565b5f81519050611bd381611baf565b92915050565b5f60208284031215611bee57611bed6114d4565b5b5f611bfb84828501611bc5565b91505092915050565b7f416d6f756e74206d7573742062652067726561746572207468616e20300000005f82015250565b5f611c38601d8361142b565b9150611c4382611c04565b602082019050919050565b5f6020820190508181035f830152611c6581611c2c565b9050919050565b7f496e73756666696369656e742062616c616e63650000000000000000000000005f82015250565b5f611ca060148361142b565b9150611cab82611c6c565b602082019050919050565b5f6020820190508181035f830152611ccd81611c94565b9050919050565b5f611cde826114dc565b9150611ce9836114dc565b9250828203905081811115611d0157611d00611ab7565b5b92915050565b7f436f6e74656e742073686f756c64206e6f7420626520656d70747900000000005f82015250565b5f611d3b601b8361142b565b9150611d4682611d07565b602082019050919050565b5f6020820190508181035f830152611d6881611d2f565b9050919050565b5f819050815f5260205f209050919050565b5f6020601f8301049050919050565b5f82821b905092915050565b5f60088302611dcb7fffffffffffffffffffffffffffffffffffffffffffffffffffffffffffffffff82611d90565b611dd58683611d90565b95508019841693508086168417925050509392505050565b5f611e07611e02611dfd846114dc565b611835565b6114dc565b9050919050565b5f819050919050565b611e2083611ded565b611e34611e2c82611e0e565b848454611d9c565b825550505050565b5f90565b611e48611e3c565b611e53818484611e17565b505050565b5b81811015611e7657611e6b5f82611e40565b600181019050611e59565b5050565b601f821115611ebb57611e8c81611d6f565b611e9584611d81565b81016020851015611ea4578190505b611eb8611eb085611d81565b830182611e58565b50505b505050565b5f82821c905092915050565b5f611edb5f1984600802611ec0565b1980831691505092915050565b5f611ef38383611ecc565b9150826002028217905092915050565b611f0c82611421565b67ffffffffffffffff811115611f2557611f24611613565b5b611f2f82546118d6565b611f3a828285611e7a565b5f60209050601f831160018114611f6b575f8415611f59578287015190505b611f638582611ee8565b865550611fca565b601f198416611f7986611d6f565b5f5b82811015611fa057848901518255600182019150602085019450602081019050611f7b565b86831015611fbd5784890151611fb9601f891682611ecc565b8355505b6001600288020188555050505b505050505050565b7f596f7527766520616c7265616479206c696b6564207468697320706f737400005f82015250565b5f612006601e8361142b565b915061201182611fd2565b602082019050919050565b5f6020820190508181035f83015261203381611ffa565b9050919050565b7f596f752063616e6e6f74206c696b6520796f7572206f776e20706f73740000005f82015250565b5f61206e601d8361142b565b91506120798261203a565b602082019050919050565b5f6020820190508181035f83015261209b81612062565b9050919050565b5f6040820190506120b55f83018561156a565b6120c2602083018461156a565b9392505050565b5f815190506120d7816114e5565b92915050565b5f602082840312156120f2576120f16114d4565b5b5f6120ff848285016120c9565b91505092915050565b7f496e73756666696369656e7420616c6c6f77616e6365000000000000000000005f82015250565b5f61213c60168361142b565b915061214782612108565b602082019050919050565b5f6020820190508181035f83015261216981612130565b9050919050565b5f6060820190506121835f83018661156a565b612190602083018561156a565b61219d6040830184611579565b949350505050565b5f6121af826114dc565b91506121ba836114dc565b92508282019050808211156121d2576121d1611ab7565b5b9291505056fea2646970667358221220320c3ae2c27713b7162b79e3e62fae82b7d4f19f15209c4867cf795bc6dd370864736f6c63430008140033",
  "immutableReferences": {},
  "source": "// SPDX-License-Identifier: MIT\npragma solidity ^0.8.0;\n\nimport \"@openzeppelin/contracts/access/Ownable.sol\";\nimport \"@openzeppelin/contracts/token/ERC20/IERC20.sol\";\n\ncontract KoladeUser is Ownable {\n    string public name;\n    address public koladeToken;\n    IERC20 public tokenContract;\n    uint256 public tokenAmount;\n    uint256 public tokenBalance;\n\n    struct Post {\n        address author;\n        string content;\n        string imageURL;\n        uint256 likes;\n    }\n\n    Post[] public posts;\n    mapping(address => bool) public likedPosts;\n\n    event PostCreated(address indexed author, uint256 postId);\n    event PostLiked(address indexed user, uint256 postId);\n\n    constructor(string memory _name, address _tokenContractAddress) Ownable(msg.sender) {\n        name = _name;\n        koladeToken = msg.sender;\n        tokenContract = IERC20(_tokenContractAddress);\n    }\n\n    function setTokenAmount(uint256 _amount) public onlyOwner {\n        require(tokenAmount == 0, \"Token amount can only be set once\");\n        tokenAmount = _amount;\n    }\n\n    function createPost(string memory _content, string memory _imageURL) public {\n        require(bytes(_content).length > 0, \"Content should not be empty\");\n\n        Post memory newPost = Post({\n            author: msg.sender,\n            content: _content,\n            imageURL: _imageURL,\n            likes: 0\n        });\n\n        posts.push(newPost);\n        emit PostCreated(msg.sender, posts.length - 1);\n    }\n\n    function likePost(uint256 _postId) public {\n        require(_postId < posts.length, \"Invalid post ID\");\n        require(!likedPosts[msg.sender], \"You've already liked this post\");\n\n        Post storage post = posts[_postId];\n        require(msg.sender != post.author, \"You cannot like your own post\");\n\n        uint256 tokensToPay = 1;\n\n        require(tokenContract.allowance(msg.sender, address(this)) >= tokensToPay, \"Insufficient allowance\");\n\n        tokenContract.transferFrom(msg.sender, address(this), tokensToPay);\n\n        tokenContract.transfer(post.author, tokensToPay);\n\n        post.likes++;\n        likedPosts[msg.sender] = true;\n\n        emit PostLiked(msg.sender, _postId);\n    }\n\n    function distributeTokensToLikers(uint256 _postId) public onlyOwner {\n        require(_postId < posts.length, \"Invalid post ID\");\n        Post storage post = posts[_postId];\n\n        require(msg.sender == post.author, \"You can only distribute tokens for your posts\");\n\n        uint256 totalLikings = 0;\n        for (uint256 i = 0; i < posts.length; i++) {\n            if (likedPosts[post.author]) {\n                totalLikings++;\n            }\n        }\n\n        uint256 tokensToDistribute = tokenBalance / 2 / totalLikings;\n\n        for (uint256 i = 0; i < posts.length; i++) {\n            if (likedPosts[post.author]) {\n                tokenContract.transfer(post.author, tokensToDistribute);\n            }\n        }\n    }\n\n    function depositTokens(uint256 amount) public {\n        require(amount > 0, \"Amount must be greater than 0\");\n        require(tokenContract.allowance(msg.sender, address(this)) >= amount, \"Insufficient allowance\");\n\n        tokenContract.transferFrom(msg.sender, address(this), amount);\n        tokenBalance += amount;\n    }\n\n    function withdrawTokens(uint256 amount) public {\n        require(amount > 0, \"Amount must be greater than 0\");\n        require(tokenBalance >= amount, \"Insufficient balance\");\n\n        tokenContract.transfer(msg.sender, amount);\n        tokenBalance -= amount;\n    }\n\n    function getBalance() public view returns (uint256) {\n        return tokenBalance;\n    }\n}\n",
  "sourcePath": "/home/kolade/Documents/work_space/kolade-dapp/contracts/KoladeUser.sol",
  "compiler": {
    "name": "solc",
    "version": "0.8.20+commit.a1b79de6.Emscripten.clang"
  },
  "schemaVersion": "3.4.16",
  "updatedAt": "2023-10-20T03:59:49.475Z",
  "devdoc": {
    "errors": {
      "OwnableInvalidOwner(address)": [
        {
          "details": "The owner is not a valid owner account. (eg. `address(0)`)"
        }
      ],
      "OwnableUnauthorizedAccount(address)": [
        {
          "details": "The caller account is not authorized to perform an operation."
        }
      ]
    },
    "kind": "dev",
    "methods": {
      "owner()": {
        "details": "Returns the address of the current owner."
      },
      "renounceOwnership()": {
        "details": "Leaves the contract without owner. It will not be possible to call `onlyOwner` functions. Can only be called by the current owner. NOTE: Renouncing ownership will leave the contract without an owner, thereby disabling any functionality that is only available to the owner."
      },
      "transferOwnership(address)": {
        "details": "Transfers ownership of the contract to a new account (`newOwner`). Can only be called by the current owner."
      }
    },
    "version": 1
  },
  "userdoc": {
    "kind": "user",
    "methods": {},
    "version": 1
  }
}